:100000000C9484080C94AC080C94AC080C94AC08C8
:100010000C94AC080C94AC080C94AC080C94AC0890
:100020000C94AC080C94AC080C94AC080C94AC0880
:100030000C94AC080C94AC080C94AC080C94AC0870
:100040000C94051F0C94AC080C94E7210C94192215
:100050000C94AC080C94AC080C94AC080C94AC0850
:100060000C94AC080C94AC085B5900005957000084
:100070005755000055520000524E00004F4A0000F4
:100080004C46000049430000473F0000443C00004C
:10009000423900004138000040380000403800007C
:1000A00040390000423C0000454000004845000047
:1000B0004C4B0000505200005459000059610000A0
:1000C0005D69000062700000667700006A7E0000D3
:1000D0006E84000070890000738D00007490000031
:1000E00074930000749500007396000072970000EE
:1000F0007298000072990000729A0000729B0000D2
:10010000729C0000729E000072A0000073A30000A9
:1001100077A704007CAC0D0084B219008CB82700CE
:1001200094C038009EC74900A8CF5B00B2D76E00CC
:10013000BDDF8000C7E69100D0EDA100D9F3B0008B
:10014000E1F8BC00E8FCC500EEFFCA00F2FFCA00FF
:10015000F6FFCA00F9FFCA00FBFFC700FDFFC2009F
:10016000FFFDBB00FFFBB400FFF8AB00FFF5A200F2
:10017000FFF39A00FFF09200FFEE8A00FFEC83008D
:10018000FFEB7E00FEEB7A00FCEB7600F9EB7200F1
:10019000F6EB6E00F3EB6A00F0EB6700ECEB63004C
:1001A000E8EB6000E4EB5D00E1EB5900DEEB5600AC
:1001B000DBEB5300D9EB5000D8E84C00D8E2490003
:1001C000D8D94500D8D04100D8C43D00D9B83800AE
:1001D000DAAB3400DB9E2F00DD912B00DE8327009D
:1001E000E0762400E16A2100E35F1F00E5551D0071
:1001F000E64D1C00E8461C00E9441D00EB442000CD
:10020000EE442500F2442A00F6443100FA44390055
:10021000FD454100FF494900FF4D5000FF51570087
:10022000FF555D00FF586200FF5B6500FF5D6600E3
:10023000FD5E6500F55E6300EC5E5E00E15E57000A
:10024000D45E5000C65E4700B75E3D00A85D340036
:100250009A5D2A008B5C20007E5C1700725B0F00A9
:10026000675A08005F5A0300FF00C600FF00C6007F
:10027000FF00C600FF00C600FF00C600FF00C6006A
:10028000FE02C500EC1ABC00CF41AE00AC6F9D0071
:10029000889E8B0067C67B004EE06E003DE46500E3
:1002A00032E35E002BD95A0026C7560024B453000F
:1002B00023A2500022964C00238D4A002685470039
:1002C0002A7C45002F744300346B410038633F00A3
:1002D0003C5B3D003F533B003F4D39003E473600FD
:1002E0003D4134003B3B310039342E00362E2B008B
:1002F00033272800302126002D1C23002A19210035
:1003000027191F0025191F0024191F0023191F007A
:10031000231C2000262F27002C4E33003272400071
:100320003A984F0040BB5C0046D5660049E36B003D
:1003300047DD680040C25F00369A50002C6D3F00D8
:1003400029442F00292721002A1E1A002D201A00D7
:1003500032241A0038291A0040301A0048381A008E
:1003600050411A00594B1A0063561A006D621A0068
:10037000776E1A00817B1B008C881D0096951E00ED
:10038000A1A21F00ABAF2000B4BB2200BDC7230059
:10039000C6D22400CEDC2600D5E62700DBEE2800FE
:1003A000E0F42900E4F92A00E7FD2B00E9FF2C0026
:1003B000E8FE2D00E3F72D00DAEC2E00CEDD2E0056
:1003C000BFCA2E00AFB52E009C9E2E008A872F003C
:1003D00077702F00655930005445310045343200A4
:1003E00039263300311D35002E1E3C00454D52008C
:1003F00071986B0087C079008BC77C008ECD7F0021
:1004000090D3810092D8830094DC850096E0870029
:1004100097E3890098E68A0099E88B009AEB8C00B4
:100420009AED8D009AEF8E009AF18F009AF38F006B
:100430009AF38F0099F38F0098F38E0096F38E0055
:1004400094F38D0092F38B008FF38A008DF3890073
:100450008AF3870088F3860086F3840084F38300A0
:1004600082F3820081F381002328F9002327F5001D
:100470002325F1002324EC002322E7002320E100C0
:10048000241EDB00241CD400241ACE002418C8002B
:100490002516C2002514BC002612B7002710B20092
:1004A000290FAE002A0DAA002C0CA7002D0BA400CA
:1004B0002F09A10031089F0033079C0036069A00DF
:1004C000380598003B0496003D0394003F029200DB
:1004D0004201900044008E0047008B0049008900D3
:1004E0004B0087004C0085004E0084004F008200C6
:1004F0005100800053007E0056007C0059007900B6
:100500005D0076006200720068006E006E05690092
:10051000761163007F1F5C008831540093454B00C7
:100520009E5A4200AA703800B5862F00C19C260052
:10053000CCB11D00D7C41500E2D50E00EBE30800D6
:10054000F3ED0400FAF40100FFF40100FFCF0C000A
:10055000FF852500FF364500FF056300FF006B00A7
:10056000FF006F00FF007500FF007A00FF007F00B2
:10057000FF008500FF008B00FF009100FF00970047
:10058000FF009D00FF00A400FF00AA00FF00B000D4
:10059000FF00B600FF00BE00FF00C700FF00D00054
:1005A000FF00D900FF00E100FF00E800FF00EF00BE
:1005B000FF00F500FF00FA00FF00FF00FA00FF0057
:1005C000F400FF00ED00FF00E500FF00DB00FF008E
:1005D000D200FF00C800FF00BD00FF00B300FF0015
:1005E000A900FF00A000FF009700FF008F00FF00A0
:1005F0008700FF008100FF007C01FD007702F90009
:100600007403F4007205EF007007E8006F08E20061
:100610006E0ADB006E0CD5006D0ECF006C10C900A9
:100620006B12C5006A14C1006816BF006517BE00D2
:100630006119BF005D1AC100591CC400541DC900D6
:100640004F1ECD004A20D3004421D9003F23DF00B4
:100650003A24E5003525EB003026F1002C27F60082
:100660002828FA002629FE000101010002020200EA
:100670000404040006060600080808000A0A0A0026
:100680000C0C0C000E0E0E001010100012121200B6
:1006900015151500171717001A1A1A001D1D1D0031
:1006A0001F1F1F00222222002525250028282800A0
:1006B0002B2B2B002E2E2E00313131003434340000
:1006C000373737003A3A3A003E3E3E00414141005A
:1006D00044444400484848004B4B4B004F4F4F00A8
:1006E0005252520056565600595959005D5D5D00F0
:1006F0006161610064646400686868006C6C6C002F
:100700006F6F6F0073737300777777007A7A7A0070
:100710007E7E7E00848484008C8C8C009393930076
:100720009A9A9A00A2A2A200A9A9A900B0B0B0000A
:10073000B7B7B700BEBEBE00C5C5C500CBCBCB00AA
:10074000D2D2D200D8D8D800DDDDDD00E3E3E3006B
:10075000E8E8E800EDEDED00F2F2F200F6F6F60062
:10076000FAFAFA00FDFDFD00FEFEFE00FAFAFA00BC
:10077000F7F7F700F2F2F200EEEEEE00E9E9E90039
:10078000E4E4E400DEDEDE00D8D8D800D2D2D20025
:10079000CCCCCC00C6C6C600BFBFBF00B8B8B8003E
:1007A000B1B1B100AAAAAA00A3A3A3009B9B9B007E
:1007B000949494008D8C8C00858585007F7F7F00CC
:1007C0007B7B7B00777777007373730070707000AA
:1007D0006C6C6C006868680065656500616161004B
:1007E0005D5D5D005A5A5A005656560053535300E9
:1007F0004F4F4F004C4C4C00484848004545450081
:10080000414141003E3E3E003B3B3B003737370015
:1008100034343400313131002E2E2E002B2B2B009E
:10082000282828002525250022222200202020001B
:100830001D1D1D001A1A1A0018181800151515008C
:1008400013131300101010000E0E0E000C0C0C00F1
:100850000A0A0A0008080800060606000404040044
:100860000303030001010100EDE88000EDE07500E5
:10087000EDD66900E7CA5A00CCB44200A99A270015
:1008800087830F0070750100697401006B760400A6
:100890006E7B0A0072801100788819007F90220018
:1008A00087982C0090A2380099AC4300A2B64F0064
:1008B000ACC05B00B6CA6700C0D47200C9DD7D0061
:1008C000D2E68700DAEE9000E1F59700E7FA9E00A5
:1008D000ECFEA200EDFFA300EDFFA300EDFFA000E2
:1008E000EDFF9900EDFF9000EDFB8600EDF47B003D
:1008F000EDEC7200EDE26A00EDD76300EDCC610033
:10090000EEBF6100F0AF6100F29D6200F389650007
:10091000F5756700F7606A00F94C6E00FB387000EF
:10092000FD267200FE177200FF0C7200FF047200B9
:10093000FF007100FD076A00FA195E00F6335000EF
:10094000F2524000ED713100E98E2300E5A4190058
:10095000E5A71800E8912200EC752F00F1563E0043
:10096000F6374E00FA1C5C00FD086800FF007100BD
:10097000FF037200FF0A7200FE167200FD2472006F
:10098000FB367100F9496E00F85D6B00F672680085
:10099000F4876500F29B6300F0AD6100EFBD61007C
:1009A000EDCA6100EDD66300EDE16900EDEB710089
:1009B000EDF37A00EDFA8500EDFF8F00EDFF980072
:1009C000EDFFA000EDFFA300EDFFA300ECFEA200F1
:1009D000E7FA9E00E2F59800DBEF9100D3E888008B
:1009E000CADF7F00C1D57400B7CC6800AEC15D001E
:1009F000A4B751009AAD450091A3390088992E0003
:100A00008091230079891A00738112006E7B0A009D
:100A10006B770500697401006E74010084810D001C
:100A2000A5972400C8B13F00E4C85800EDD5680080
:100A3000EDDF7300EDE77F00EDEE8900EDF593004B
:100A4000EDFA9B00EDFEA100EDFFA300EDFFA3007A
:100A5000EDFFA300EDFFA300EDFFA300EDFFA3005A
:100A6000EDFFA300EDFFA30000C3FF0000C6FF00E1
:100A700000C9FF0000CDFF0000D2FF0000D7FF003B
:100A800000DCFF0000E2FF0000E7FF0000ECFF00D9
:100A900000F1FF0000F6FF0000FAFF0000FDFF007C
:100AA00000FFFF0000FFFF0000FFFF0000FFFF004E
:100AB00000F9FF0000EFFF0000E0FF0000D0FF00A2
:100AC00000BEFF0000ABFF000099FF000089FF009F
:100AD000007CFF000076FF000073FF00006FFF0046
:100AE000006CFF000068FF000064FF000060FF0072
:100AF000005DFF000059FF000055FF000051FF009E
:100B0000004EFF00004AFF000047FF000043FF00C7
:100B10000040FF00003EFF00003BFF000039FF00E7
:100B20000036FF000035FF000035FF000035FF00F4
:100B30000035FF000035FF000035FF000035FF00E5
:100B40000035FF000035FF000035FF000037FF00D3
:100B50000040FF00004DFF00005EFF000072FF003C
:100B60000087FF00009DFF0000B3FF0000C8FF00EA
:100B700000DBFF0000EBFF0000F6FF0000FDFF00C0
:100B80000BFCFF0025E6FF0045C3FF00679AFD0050
:100B90008375F3009263E900965FE4009A5CDE00DF
:100BA0009E58D800A254D100A551CA00A94DC10039
:100BB000AD4AB800B047AF00B344A600B7419D00AE
:100BC000BA3E9300BD3C8A00BF398000C137770030
:100BD000C2356E00C2336600C2315E00C22F5600BD
:100BE000C22D4F00C22B4800C22A4300C2283E003B
:100BF000C2273B00C2263800C2253700C224360077
:100C0000BF243800BA243A00B5243E00B024420084
:100C1000A9244800A3244E009B24560093245E0080
:100C20008B24660082256F00792679007027830067
:100C300066288D005D299700542AA2004B2CAC0039
:100C4000422DB600392EC000302FCA002830D30004
:100C50002031DC001932E4001233EB000C34F200D6
:100C60000734F8000235FD00FFF4EAE0D6CDC4BC3D
:100C7000B4ADA59E98918B857F7A75706B67625E27
:100C80005A56534F4C494643403D3A383633312F3C
:100C90002D2B292826242321201F1D1C1B1A19183F
:100CA0001716151413121111100F0F0E0D0D0C0C39
:100CB0000B0B0A0A090909080808070707060606B0
:100CC00006050505050504040404040403030303E1
:100CD00003030302020202020202020202020201F2
:100CE00001010101010101007D3B1B46A94C6B88FC
:100CF000EC27FAE4B9E329CB15EB348F7AAE7C8686
:100D0000D8A274DA0E2400834EFD444120FE6B4CC1
:100D10001B87DCCB4752932C1096E8EFF6CB710083
:100D2000B260A71AAE1E84D7665A41D387D1D6EED9
:100D30006A566274CB8EA91466572A63C61A2E7F30
:100D400062EFBE74A566D44F1AE441FB2923D0128A
:100D50007E7F6D306445E7B50B5FCC4E04DD322CF1
:100D600044743C49FC06271780868D93999FA5AB58
:100D7000B1B7BCC2C7CCD1D6DBDFE3E7EAEEF1F412
:100D8000F6F9FAFCFEFFFF000000FFFFFEFCFAF997
:100D9000F6F4F1EEEAE7E3DFDBD6D1CCC7C2BCB7AD
:100DA000B1ABA59F99938D86807A736D67615B5512
:100DB0004F49443E39342F2A25211D1916120F0C94
:100DC0000A070604020101000000010102040607EF
:100DD0000A0C0F1216191D21252A2F34393E4449B9
:100DE0004F555B61676D737A0C0C0C0C0C0C0C0C82
:100DF000080808080808080803030303030303039B
:100E0000030303030303030308080808080808088A
:100E10000C0C0C0C0C0C0C0C00000A0A080802024A
:100E2000040400010102020A0A060608080A0A0A66
:100E30000A0A0A080806060A0A0202010100040456
:100E4000020208080A0A00000C0B0A090807060536
:100E5000040302010102030405060708090A0B0C3A
:100E60000C0B0A090807060504030201010203042A
:100E700005060708090A0B0C000102030405060712
:100E800008090A0B0C0D0E0F10111213141516176A
:100E900017161514131211100F0E0D0C0B0A09085A
:100EA00007060504030201000000FF00000CFF001C
:100EB0000018FF000024FF000030FF00003CFF008E
:100EC0000048FF000054FF000060FF00006CFF00BE
:100ED0000078FF000083FF00008FFF00009BFF00F1
:100EE00000A7FF0000B3FF0000BFFF0000CBFF0022
:100EF00000D7FF0000E3FF0000EFFF0000FBFF0052
:100F000000FFF70000FFEB0000FFDF0000FFD30051
:100F100000FFC70000FFBB0000FFAF0000FFA30001
:100F200000FF970000FF8B0000FF800000FF7400AF
:100F300000FF680000FF5C0000FF500000FF44005D
:100F400000FF380000FF2C0000FF200000FF14000D
:100F500000FF080004FF000010FF00001CFF00005D
:100F600028FF000034FF000040FF00004CFF00009D
:100F700058FF000064FF000070FF00007CFF0000CD
:100F800087FF000093FF00009FFF0000ABFF000001
:100F9000B7FF0000C3FF0000CFFF0000DBFF000031
:100FA000E7FF0000F3FF0000FFFF0000FFF3000079
:100FB000FFE70000FFDB0000FFCF0000FFC30000E1
:100FC000FFB70000FFAB0000FF9F0000FF93000091
:100FD000FF870000FF7C0000FF700000FF6400003E
:100FE000FF580000FF4C0000FF400000FF340000ED
:100FF000FF280000FF1C0000FF100000FF0400009D
:10100000FF000800FF001400FF002000FF002C007C
:10101000FF003800FF004400FF005000FF005C00AC
:10102000FF006800FF007400FF008000FF008B00DD
:10103000FF009700FF00A300FF00AF00FF00BB0010
:10104000FF00C700FF00D300FF00DF00FF00EB0040
:10105000FF00F700FB00FF00EF00FF00E300FF00D0
:10106000D700FF00CB00FF00BF00FF00B300FF0070
:10107000A700FF009B00FF008F00FF008300FF0020
:101080007800FF006C00FF006000FF005400FF00CC
:101090004800FF003C00FF003000FF002400FF007C
:1010A0001800FF000C00FF00000000080002010013
:1010B0000003040700000000000000000102040813
:1010C00010204080010204081020010204081020B2
:1010D00004040404040404040202020202020303DE
:1010E0000303030300000000230026002900000082
:1010F0000000250028002B0000000000240027002D
:101100002A002D144922391411241FBECFEFD8E034
:10111000DEBFCDBF11E0A0E0B1E0EEEFF8E402C029
:1011200005900D92A03AB107D9F723E0A0EAB1E00B
:1011300001C01D92A836B207E1F711E1C6E0D1E186
:1011400004C02297FE010E944023C230D107C9F794
:101150000E948D220C9472240C9400008EBD00001D
:101160000DB407FEFDCF8EB508950E94BB1E8CB551
:101170008C7F8CBD8DB581608DBD8CB58F7D8CBD18
:101180008CB5837F8CBD0895CF93DF93EC0161E034
:101190008C810E940A2061E08D810E940A204C818E
:1011A00050E0FA01E053FF4EE491F0E0EE0FFF1F34
:1011B000E251FF4EA591B491B98BA88B2D8130E0FF
:1011C000F901E053FF4E849190E0880F991F8251FE
:1011D0009F4EFC01859194919B8B8A8BFA01E4547C
:1011E000FF4E44914E87F901E454FF4E24912F871E
:1011F0008C919E85909589238C93EA89FB899081B7
:101200008F85809589238083DF91CF910895FC019C
:1012100024812F3F11F40C94B5080C94C408CF938B
:10122000DF93EC0160E08C810E940A2060E08D81F8
:10123000DF91CF910C940A20CF93DF93EC018F8143
:101240009885009711F00E94DC238C818F3F21F458
:10125000DF91CF910C94F11ECE01DF91CF910C94D0
:101260000F09FC0199E09150D9F0A089B1898685D8
:101270002C9167FF03C0282B2C9303C080958223F9
:101280008C93A289B3898C912785822B8C93A28918
:10129000B3892C918785809582238C93660FE3CF49
:1012A0000895BF92CF92DF92EF92FF920F931F9318
:1012B000CF93DF93EC01EF80F884E114F10409F49B
:1012C00088C00A811B81BE808C818F3F09F041C09C
:1012D00080E00E94AE0880E00E94AE0880E00E949C
:1012E000AE081EBC3FEF0DB407FEFDCF3EBDF701BB
:1012F00023E08E81882331F080818B9DC0011124F1
:10130000892F01C080810DB407FEFDCF8EBD215015
:1013100031962111EECF83E0E80EF11C0150110946
:1013200011F70DB407FEFDCF8FEF0E94AE088FEFCF
:101330000E94AE088FEF0E94AE088FEFDF91CF9131
:101340001F910F91FF90EF90DF90CF90BF900C9482
:10135000AE0874E0D72E60E0CE010E943109DA9425
:10136000D1F78E81882331F16FEFCE010E943109D0
:101370006701E3E0CE0ED11CF70181917F018B9DC7
:10138000C0011124692FCE010E943109EC14FD0423
:1013900099F70150110941F714E015C0F701619167
:1013A0007F01CE010E943109EC14FD04B9F7015010
:1013B000110991F36FEFCE010E9431096701F3E04B
:1013C000CF0ED11CEBCF6FEFCE010E94310911502F
:1013D000D1F7DF91CF911F910F91FF90EF90DF90A8
:1013E000CF90BF900895CF93DF93EC01288139818E
:1013F0002430310530F48F8198859A87898760E0A1
:101400000FC08A819B810196880F991F880F991FB1
:101410002817390788F423703327232B29F46054C5
:10142000CE010E9431090CC0E985FA85CF010196F1
:101430009A8789876081F4CF04962817390778F353
:10144000288139812F5F3F4F398328838A819B818F
:101450000296880F991F880F991F2817390710F0D7
:1014600019821882DF91CF910895FC012281338186
:10147000A901440F551F420F531F60E070E08781A0
:1014800090850C946B240F931F93CF93DF93EC0103
:101490008B018F819885009711F00E94DC23C80191
:1014A000880F991F800F911F0E94442398878F8374
:1014B000892B49F01B830A83CE01DF91CF911F91C5
:1014C0000F910C94350A1B821A82DF91CF911F91E4
:1014D0000F9108950F931F93FC0111821082448392
:1014E0002583168210861782802F8370838710E0F1
:1014F000C80195958795959587958370848754E065
:10150000159507955A95E1F703700587CF011F914F
:101510000F910C94430A0F93FC0182819381681709
:101520007907C0F4DB01AA0FBB1FA60FB71F878185
:1015300090858A0F9B1F3385DC01A30FB11D4C934F
:101540003485DC01A30FB11D2C932585FC01E20F2E
:10155000F11D00830F910895FC018281938168172A
:101560007907C0F4DB01AA0FBB1FA60FB71F878145
:1015700090858A0F9B1F5385DC01A50FB11D4C93ED
:101580004485DC01A40FB11D3C933585FC01E30FBC
:10159000F11D208308950E94BB1E60E089E00E9437
:1015A0000A2060E088E00E940A2061E08AE00E9450
:1015B0000A2061E087E00E940A2061E08AE00E9440
:1015C000432061E087E00C944320CF93DF93D82F32
:1015D000C62F60E08AE00E944320D260DEBD0DB4D9
:1015E00007FEFDCFCEBD0DB407FEFDCF61E08AE062
:1015F000DF91CF910C9443200F931F93CF93DF93F0
:10160000082F162FEA0160E08AE00E944320026062
:101610000EBD0DB407FEFDCFFE01812F815030F0CD
:1016200091919EBD0DB407FEFDCFF8CFC10FD11D26
:1016300061E08AE00E944320CE01DF91CF911F91AB
:101640000F910895CF93C82F60E08AE00E94432055
:10165000CEBD0DB407FEFDCF1EBC0DB407FEFDCF01
:1016600061E08AE00E9443208EB5CF910895CF9328
:1016700060E288E70E94E50A60E088E70E94E50AE8
:101680006AE070E080E090E00E947E1FC0E088E6A3
:101690000E94220B80FD04C0C150C9F780E001C048
:1016A00081E0CF9108950F931F93CF93DF93082F7D
:1016B000162FEA0160E08AE00E9443200EBD0DB4BF
:1016C00007FEFDCFFE01812F815038F01EBC0DB406
:1016D00007FEFDCF9EB59193F7CFC10FD11D61E0FD
:1016E0008AE00E944320CE01DF91CF911F910F919C
:1016F00008958091A001089588EF0E94220B807CBC
:101700008034A1F018F4882301F10895803819F08D
:10171000803CB9F0089588ED0E94220B81FD0BC03A
:1017200069EC88ED0E94E50A82E00CC088ED0E9419
:10173000220B81FDF5CF6BEC88ED0E94E50A83E07A
:1017400001C081E08093A00108951092A001089546
:101750006AE188E80E94E50A0E94370B61ED88ED96
:101760000E94E50A60E680ED0E94E50A64E088EEEA
:101770000E94E50A88EE0E94220B82FFFBCF0E94A6
:101780007C0B60E288EC0E94E50A61E080E80C9442
:10179000E50ACF9388EC0E94220B86FD02C0C0E0D0
:1017A00001C0C0E485FF03C00E947C0BC0626C2FA7
:1017B00088EC0E94E50A8C2FCF91089580EB0C9461
:1017C000220BCF9389E00E947920892B21F40E947B
:1017D000C90BC82F01C0C0E089E00E947920892B85
:1017E00011F40E94DE0B8C2FCF910895FC0110A202
:1017F0000895FC0180A1803219F48FEF80A3089531
:1018000091E0980F90A3E80FF11D60830895FC010B
:1018100010A2089521E0FC0180A18F3F09F420E08F
:10182000822F0895FC0181E09081903F09F080E0D3
:101830000895FC019081907F81E0903909F080E06B
:101840000895FC019081907F81E0903809F080E05C
:1018500008950E94CB0A0E94A80B81E180930601A3
:101860001092A6011092BD011092D4011092EB01CA
:10187000109202021092A5011092A80180E48093B8
:10188000AC0180E18093AD010895FC01608380E4A8
:10189000848380E1858308959093190280931802D0
:1018A0000895E0911802F091190209946F927F92C5
:1018B0008F92AF92BF92CF92DF92EF92FF920F93EF
:1018C0001F93CF93DF93882E3B015A010E944F1F35
:1018D0006B017C0188E8C80E83E1D81EE11CF11C75
:1018E00000E0C0E0D0E010E00E944F1F6C157D05C5
:1018F0008E059F05D8F5F3016081682980EF0E946D
:10190000E50A0E944F1F6C157D058E059F0558F452
:1019100088EC0E94220B87FFF4CF60E888EC0E94DD
:10192000E50A10E00AC08FEF90E022C088EF0E9425
:10193000220B182F1F70113039F40E944F1F6C15A5
:101940007D058E059F0590F3143019F01E3041F08F
:101950000DC02196CA15DB0539F684E090E008C079
:101960000F5F033009F68EE090E002C0812F90E017
:10197000DF91CF911F910F91FF90EF90DF90CF906B
:10198000BF90AF908F907F906F900895E3E0F2E06A
:1019900024E030E0DF0111974C91442381F0408135
:1019A00050E04817590759F487E1829FF001839F5F
:1019B000F00D1124EB55FE4F118210820895215035
:1019C000310977972115310529F708956F927F9294
:1019D0008F929F92AF92BF92CF92DF92EF92FF923F
:1019E0000F931F93CF93DF93EB015A0169018A8014
:1019F0009B80FC01608180EE0E94E50A88ED0E94D8
:101A0000220B682F646088ED0E94E50A6D8188EEE4
:101A10000E94E50AE12CF12CA801BE0180E00E94A1
:101A2000560C892B41F588EC0E94220B82FF25C0C1
:101A300080E30E94220B682E712CA601682F88E09B
:101A40000E94530B6C0164E088EC0E94E50AE60CEE
:101A5000F71C6814790438F488EF0E94220B84FF85
:101A600006C080E205C0EA14FB04B0F2F5CF80E1C5
:101A70008D83C70104C08FEF01C08EEF9FEFDF9110
:101A8000CF911F910F91FF90EF90DF90CF90BF907B
:101A9000AF909F908F907F906F9008950F931F93BA
:101AA000FB01222319F001E010E002C000E01DE775
:101AB000BC01675F7F4F9A01AF010E94E60C1F9146
:101AC0000F9108952F923F924F925F926F927F9263
:101AD0008F929F92AF92BF92CF92DF92EF92FF923E
:101AE0000F931F93CF93DF9300D01F92CDB7DEB734
:101AF0007B018A016901FC01608180EE0E94E50A98
:101B00000E944F1F2B013C01F701828093808820A7
:101B100009F452C0648188EE0E94E50A20E099240D
:101B2000F3E04F0E511C611C711C01151105A9F148
:101B30001B830A838016910610F49B828A822A8076
:101B4000A601622D80E10E94FC0A6A8188E30E945E
:101B5000E50AF7016081606280EF0E94E50A88EC87
:101B60000E94220B87FFFBCF60E888EC0E94E50A09
:101B700088EF0E94220B282F2F70A12CB12C312C22
:101B8000222309F453C029830E944F1F2981641521
:101B900075058605970598F049C088EF29830E944E
:101BA000220B298185FF02C080E801C080E4F70193
:101BB0008483822F90E041C08EEF90E03EC02430BD
:101BC00061F5FFEFAF1ABF0AA1148DE7B80611F156
:101BD00060E088E30E94E50AF601608180E10E94EE
:101BE000E50A622D88E30E94E50AF70160816062E0
:101BF00080EF0E94E50A88EC0E94220B87FFFBCF52
:101C000060E888EC0E94E50A88EF0E94220B282FEA
:101C10002F70B6CF84E090E010C02E3051F6339490
:101C200093E03912D5CF8EE090E007C08A819B8186
:101C3000081B190BC80ED91E78CF0F900F900F906C
:101C4000DF91CF911F910F91FF90EF90DF90CF9098
:101C5000BF90AF909F908F907F906F905F904F90CC
:101C60003F902F900895FB019A01BC01615F7F4F67
:101C7000AF010C94620D0F931F93E62FBC016D5FB3
:101C80007F4FEE2349F0E0E2DC011896EC9300E090
:101C90001DE70E94E60C06C0E0E8DC011796EC9315
:101CA0000E94620D1F910F9108957F928F929F92D3
:101CB000AF92BF92CF92DF92EF92FF920F931F935A
:101CC000CF93DF93CDB7DEB72A970FB6F894DEBF78
:101CD0000FBECDBF4C01162FFC01608180EE2A871C
:101CE00049870E94E50A712E771C7724771C198397
:101CF00049854A832A85822F90E0902B9C838B8391
:101D0000FE82ED82D886CF82AE014F5F5F4F68E0E2
:101D100080E20E94FC0A84010D5F1F4F40E05DE7F6
:101D2000B80180E10E94560C811118C0A114B104C1
:101D300031F09501A601672DC4010E943B0E40E0E1
:101D40005DE7B801772011F080EA01C080E80E94C9
:101D5000560C882331F08DEF9FEF05C08FEF9FEF7A
:101D600002C080E090E02A960FB6F894DEBF0FBE66
:101D7000CDBFDF91CF911F910F91FF90EF90DF903A
:101D8000CF90BF90AF909F908F907F9008952F92AB
:101D90003F924F925F926F927F928F929F92AF92FB
:101DA000BF92CF92DF92EF92FF920F931F93CF9348
:101DB000DF9300D0CDB7DEB73C01562F2901480193
:101DC0001982242E312CCE0101965C01CC24C394BF
:101DD000D12C710103E0262F46E060E8C3015A834D
:101DE0000E94550E5A8197FD2FC0898190E04816B8
:101DF000590608F44982C980D12C5401710103E0CD
:101E0000252F46E060E8C3010E94550E97FD1FC0D4
:101E1000298130E0C901029797FD01969595879534
:101E2000F401D401992712969F012819390928171E
:101E300039071CF42C912193F6CFF401E80FF91F18
:101E4000108280E090E005C08FEF9FEF02C08EEF20
:101E50009FEF0F900F90DF91CF911F910F91FF9007
:101E6000EF90DF90CF90BF90AF909F908F907F903A
:101E70006F905F904F903F902F900895AF92BF92D8
:101E8000CF92DF92EF92FF920F935B0142E1C42E5B
:101E9000D12CE12CF12C01E020E046E060E80E942A
:101EA000550E0F91FF90EF90DF90CF90BF90AF90C5
:101EB0000895AF92BF92CF92DF92EF92FF920F936D
:101EC0005B0158E0C52ED12CE12CF12C09E220E079
:101ED00046E060EA0E94550E0F91FF90EF90DF9070
:101EE000CF90BF90AF9008954F925F926F927F9284
:101EF0008F929F92AF92BF92CF92DF92EF92FF921A
:101F00000F931F93CF93DF933C01162F2A014901B2
:101F1000590174E0C72ED12CE12CF12C02E0262FC0
:101F200046E060E80E94550E892BD1F4F401C3818C
:101F3000D0E0DC2FCC278281C82B4C165D0608F43C
:101F4000E20154016E01E12CF12C02E0212F46E068
:101F500060E8C3010E94550E892B21F4CE0104C014
:101F60008FEF01C08EEF9FEFDF91CF911F910F9107
:101F7000FF90EF90DF90CF90BF90AF909F908F90A9
:101F80007F906F905F904F900895AF92BF92CF92E5
:101F9000DF92EF92FF920F93262FA12CB12CC12C30
:101FA000D12CE12CF12C00E045E060E00E94550EC0
:101FB0000F91FF90EF90DF90CF90BF90AF9008957A
:101FC000CF93DF939091BD01992359F09091D40163
:101FD000992351F09091EB01911134C063E070E0CE
:101FE00005C061E070E002C062E070E097E1969F9A
:101FF000F001979FF00D1124EF01CB55DE4F688360
:1020000091E099838A83E855FE4F108280E48483AF
:1020100080E1858385EA91E00E94C50F892B39F420
:1020200060E070E0CE010E94510C80E909C062E0DE
:1020300070E0CE010E94510C80E780931A0280EA82
:1020400080930601DF91CF910895CF92DF92EF92B6
:10205000FF920F931F93CF93DF93CDB7DEB76297B5
:102060000FB6F894DEBF0FBECDBF0E94E10B0E94F9
:10207000790B813039F090910601813028F084305D
:10208000E0F407C083E117C0907F9031B1F081E1A7
:1020900012C0907F903189F40E944F1F68537F4F88
:1020A0008F4F9F4F6093A1017093A2018093A30172
:1020B0009093A40180E280930601109106011034F0
:1020C00009F441C050F4103231F11033B1F1113143
:1020D00009F0E8C00DEB11E00AC0103609F469C040
:1020E000103709F480C0103509F0DCC04BC0D801AE
:1020F0008C91882331F061E070E0C80101970E9463
:10210000510C095E1F4FB2E002301B0781F70E949D
:10211000290C82E1C5C0C090A101D090A201E0903D
:10212000A301F090A4010E944F1FC616D706E8062F
:10213000F90608F0B7C080E3B3C061E088EE0E9402
:10214000E50A80E4ADC088EE0E94220B80FDAAC0A3
:1021500088ED0E94220B682F686088ED0E94E50AD6
:1021600080E5809306010E944F1F6C5E7F4F8F4F6A
:102170009F4F6093A1017093A2018093A30190935C
:10218000A40190C088EC0E94220B86FF8BC0C090F7
:10219000A101D090A201E090A301F090A4010E94BF
:1021A0004F1FC616D706E806F90608F07BC080E682
:1021B00077C088E090E09093AB018093AA01BE01C4
:1021C0006F5F7F4F85EA91E00E943E0F811108C04A
:1021D000888590E09093AB018093AA0180E760C06E
:1021E00010931A025CC08091BD01882369F0809130
:1021F000D401882371F08091EB0181113DC0A3E0EF
:10220000FA2E23E030E009C0FF24F39421E030E00F
:1022100004C0F2E0FF2E22E030E087E1829FF0016F
:10222000839FF00D11248F010B551E4FD801FC9296
:1022300081E011968C93E855FE4F108280E48483F0
:1022400080E185836F2D85EA91E00E94C50F8111A1
:1022500007C060E070E0C8010E94510C80E909C02D
:1022600062E070E0C8010E94510C80E780931A027E
:1022700080EA8093060102C0E4E0FE2E8091060110
:10228000803781F4B7E1FB9EC001112462E070E069
:102290008B559E4F0E94510C8EEF80931A0280EA5C
:1022A0008093060162960FB6F894DEBF0FBECDBFD5
:1022B000DF91CF911F910F91FF90EF90DF90CF9022
:1022C0000895AF92BF92CF92DF92EF92FF920F9359
:1022D000262FA12CB12CC12CD12CE12CF12C00E00B
:1022E00049E060E00E94550E0F91FF90EF90DF9063
:1022F000CF90BF90AF900895EF92FF920F931F93EE
:10230000CF93DF9300D000D0CDB7DEB77C010E9421
:1023100061118E010F5F1F4F24E030E040E060E06C
:10232000C7010E94C70E2C81332727FD3095322F1D
:1023300022274B81552747FD5095242B352BF7013C
:10234000368B258B99270F900F900F900F90DF9170
:10235000CF911F910F91FF90EF900895AF92BF9290
:10236000CF92DF92EF92FF920F93E42EF12CF22A9C
:10237000A12CB12CC12CD12C00E0262F41E063E22E
:102380000E94550E0F91FF90EF90DF90CF90BF907D
:10239000AF900895AF92BF92CF92DF92EF92FF92EB
:1023A0000F93E42EF12CF22AA12CB12CC12CD12CAC
:1023B00000E0262F43E063E20E94550E0F91FF904C
:1023C000EF90DF90CF90BF90AF900895AF92BF9203
:1023D000CF92DF92EF92FF920F93E62EF12C5901EC
:1023E0006A0100E020E040E063EA0E94550E0F9190
:1023F000FF90EF90DF90CF90BF90AF900895BF9285
:10240000CF92DF92EF92FF920F931F93CF93DF93C0
:1024100000D000D0CDB7DEB77C01B62E20E0462F2D
:1024200061E10E94AE1120E04B2D60E1C7010E94E6
:10243000AE1120E04B2D64E0C7010E94CA1113E0E9
:10244000C12ED12C9E012F5F3F4F44E050E06B2DF9
:10245000C7010E94E61109811A812B813C811D7FF1
:10246000033011402041310501F520E04B2D64E19E
:10247000C7010E94AE1120E04B2D60E1C7010E9410
:10248000AE1164E170E080E090E00E947E1F0F904A
:102490000F900F900F90DF91CF911F910F91FF90B0
:1024A000EF90DF90CF90BF90089562E370E080E0FE
:1024B00090E00E947E1F81E0C81AD10819F6D5CF9E
:1024C000089508950895CF93DF93EA01CA010E9409
:1024D000190C811105C0CE01DF91CF910C94210C14
:1024E000DF91CF9108950F931F93CF93DF93EC016A
:1024F0008B01CB010E94120C882309F480C0F801E3
:1025000081818A3209F07BC0F801628143816430A5
:10251000A9F4FE01E259FF4F81E08083339644EC39
:1025200059E060E070E040835183628373833297A7
:10253000DE01A059BF4F8C91808328C0663079F4AA
:10254000FE01E259FF4F1082CF58DF4F4AE050E0C2
:1025500060E070E0488359836A837B8350C06530B4
:1025600001F5FE01E259FF4F8081811148C031968B
:10257000DE01A059BF4F8C918083329646E050E037
:1025800060E070E040835183628373836BE172E0AB
:10259000CE018E579F4FDF91CF911F910F910C94D9
:1025A000DC14633069F4483050F5642F70E0CE01DC
:1025B0008E579F4FDF91CF911F910F910C94421630
:1025C000633048F4CE018E579F4FDF91CF911F911A
:1025D0000F910C943C16673091F446954695FE0198
:1025E000E059FF4F483010F0408302C088E08083FC
:1025F000C159DF4F80818695869586958883DF91C6
:10260000CF911F910F910895CF93DF93EC018BE54C
:1026100091E099838883CE018E579F4F27E731E061
:10262000FC01318320830E943616CE01DF91CF91C9
:102630000C94CD16CF93DF93EC010E940413CE01CE
:10264000DF91CF910C949E22BF92CF92DF92EF92B6
:10265000FF920F931F93CF93DF93CDB7DEB7E09731
:102660000FB6F894DEBF0FBECDBF80E3E7E1F1E027
:10267000DE01119601900D928A95E1F77E0181E3CA
:10268000E80EF11CFE0131966F01F60161916F01B8
:1026900070E008EC28EC48EC8BE192E00E948B0A99
:1026A0008BE192E00E945109CE14DF0471F76CE2D5
:1026B00071E080E090E00E947E1FCE0101966C01E7
:1026C000F60161916F0170E000E020E04FEF8BE1D7
:1026D00092E00E948B0A8BE192E00E945109CE1495
:1026E000DF0471F76CE271E080E090E00E947E1FF1
:1026F000CE0101966C01F60161916F0170E000E07E
:102700002FEF40E08BE192E00E948B0A8BE192E098
:102710000E945109CE14DF0471F76CE271E080E091
:1027200090E00E947E1FCE0101966C01F60161913E
:102730006F0170E00FEF20E040E08BE192E00E943B
:102740008B0A8BE192E00E945109CE14DF0471F7ED
:102750008BE192E00E945109E12CF12C1EEFC12C7B
:10276000D12CB12EBE180B2D20E040E0B6018BE13C
:1027700092E00E948B0AFFEFCF1ADF0A80E3C816AF
:10278000D10489F78BE192E00E94510994E0E90EAF
:10279000F11CE114E1E0FE0611F78BE192E00E94EA
:1027A000350A8BE192E0E0960FB6F894DEBF0FBEDB
:1027B000CDBFDF91CF911F910F91FF90EF90DF90F0
:1027C000CF90BF900C945109CF93DF93EC010E94FE
:1027D000DA168BE591E09983888348E050E060E366
:1027E00070E0CE018E579F4F0E94B5168BE192E0AC
:1027F0000E940709FE01EF57FF4F10828BE192E024
:102800000E94350A8BE192E00E945109CE010E949C
:10281000241364EF71E080E090E00E947E1FFE01CF
:10282000E159FF4F81E08083329648EE53E060E04B
:1028300070E04083518362837383319780E18083AA
:1028400035961082118212821382BF961082C2596D
:10285000DF4F1882DF91CF9108950F9306E022E1B8
:1028600043E160E370E08BE192E00E946A0A0F911D
:1028700008958BE192E00C941C098F929F92AF9285
:10288000BF92CF92DF92EF92FF920F931F93CF935D
:10289000DF93EC010E944F1FFE01EB58FF4F0081B8
:1028A000118122813381AE0141595F4F6A010115C7
:1028B00011052105310591F04B015C01801A910A47
:1028C000A20AB30ADE01AF58BF4F0D911D912D91A1
:1028D0003C91081519052A053B0590F46083718326
:1028E00082839383F6013081FE01E059FF4F2081FE
:1028F000269526952695231718F43150F601308336
:102900005E01F1E8AF0EB11CF501408150E07B01A2
:102910008C0124E030E06BE172E0CE018E579F4FD6
:102920000E942B15F50180818C5F60E30E94C92213
:10293000908304E010E0F60160818BE192E00E9458
:10294000F30901501109B9F7CE01DF91CF911F9121
:102950000F91FF90EF90DF90CF90BF90AF909F903E
:102960008F900C94731CCF93DF9385EA90E00E94C4
:102970009C22EC010E94E413D0933002C0932F02FA
:10298000CE01DF91CF910C941F1780912F0290916F
:102990003002DC01ED91FC910684F785E02D09946D
:1029A000CF93DF93EC010E944F1F6F837887898755
:1029B0009A87DF91CF910895CF93DF93EC010E9426
:1029C0004F1F6F83788789879A87DF91CF9108950A
:1029D000CF92DF92EF92FF920F931F93CF93DF93EB
:1029E0007C018B01FC018385882361F1EA016A0186
:1029F000C20ED31ECC15DD052CF5C831D105C4F4AB
:102A0000F70183819481A581B6810C2E04C0B6950F
:102A1000A795979587950A94D2F780FF05C021E185
:102A200031E141E150E008C020E030E0A90104C0FC
:102A300020E031E140E050E0BE01C8010E94AC0A54
:102A40002196D8CFDF91CF911F910F91FF90EF90FA
:102A5000DF90CF9008953F924F925F926F927F9256
:102A60008F929F92AF92BF92CF92DF92EF92FF929E
:102A70000F931F93CF93DF9300D000D0CDB7DEB775
:102A80009C838B837A8369835A0169018091330225
:102A900067E00E94C922E92FF0E0EE0FFF1FE95F17
:102AA000FE4F80819181AB81BC815D969C938E931A
:102AB0005C971D968C91CA0CDB1C873080F0AC149F
:102AC000BD040CF0A7C000E020E040E0B501898122
:102AD0009A810E948B0ABFEFAB1ABB0AF0CFEB8141
:102AE000FC8187819085A185B285A8019701281B6B
:102AF000390B4A0B5B0BCA01B90128E230E040E018
:102B000050E00E940B2329013A01609132026623B2
:102B100039F070E080E890E00E94D522362E02C0A5
:102B200040E8342E7501EC14FD040CF073C0AB8149
:102B3000BC811E96ED91FC911F97EE0DFF1DE49157
:102B4000C301B2016E0F711D811D911D53962C9111
:102B500030E040E050E00E940B23AB81BC815196F5
:102B6000ED91FC915297E60FF71F85919591A591F4
:102B7000B491282F30913102632D0E94C92290E038
:102B8000830F911DEB81FC81668D70E00E94D52240
:102B9000880F991F880F991F048CF58DE02DE80F81
:102BA000F91F85909590A590B490AB81BC819196CA
:102BB0006C919197822F0E94C9225F96ED91FC91B2
:102BC0009097E90FF11D85919591A591B49182950A
:102BD00086958770082D10E0082E02C01595079580
:102BE0000A94E2F7292D30E0082E02C0359527958A
:102BF0000A94E2F74A2D50E002C0559547958A9510
:102C0000E2F7B70189819A810E948B0ABFEFEB1A24
:102C1000FB0A89CF0F900F900F900F90DF91CF910B
:102C20001F910F91FF90EF90DF90CF90BF90AF90EA
:102C30009F908F907F906F905F904F903F900895FE
:102C4000FC018FE691E091838083178210861186C4
:102C50001286628310923102109232021092330275
:102C60001382148215821682138608952FE631E0AE
:102C7000FC01318320830895E62FF0E0EF5CFD4FE7
:102C800040830895FC0165876115710519F488E199
:102C90009EE01CC061307105A1F488EE9CE097872E
:102CA000868740E8408B88E69DE0928B818B438B42
:102CB00028EA3EE0358F248F468F90A3878F41A36B
:102CC000089562307105A1F488E49EE097878687B5
:102CD00080E3808B88E69CE0928B818B20E8238BBD
:102CE00088EA9EE0958F848F268F88E69DE039C024
:102CF0006330710519F488E79EE022C064307105E5
:102D000019F488E79EE005C065307105A1F488E1FB
:102D10009EE09787868780E3808B88E69CE0928B95
:102D2000818B20E8238B88EA9EE0958F848F268F05
:102D300088EE9CE016C066307105B1F488EE9DE027
:102D40009787868780E3808B88E69DE0928B818BD6
:102D500020E8238B88EA9EE0958F848F268F88E673
:102D60009CE090A3878F21A308950F931F93CF9387
:102D7000DF93EC018A010E94201687E791E0998396
:102D80008883B801CE01DF91CF911F910F910C94F0
:102D9000421608950895089508952FE731E0FC0143
:102DA0003183208308952FE731E0FC0131832083B4
:102DB0000C949E22CF93DF93EC018FE791E09983EF
:102DC0008883CE0181960E94F60BCE018E5B9F4FC9
:102DD0000E94F60B18A21F8E1C8E1B8E1E8E1D8E3F
:102DE000FE01EA59FF4F1082339710823596108208
:102DF000118212821382319710823297108268EE0C
:102E000073E080E090E00E947E1F1A820E944F1FB4
:102E10006F8B788F898F9A8FFE01E459FF4F81E085
:102E20008083C359DF4F888326E040E052EC61E0A5
:102E300070E087EC92E0DF91CF910C948521909324
:102E4000BB028093BA028EE69BE10E944C0C0C946C
:102E5000290CFF920F931F93CF93DF93CDB7DEB76B
:102E6000CF5FD1090FB6F894DEBF0FBECDBF8C0186
:102E70000E944F1FF801678B708F818F928F628144
:102E8000662309F454C08EE7898382E0860F8A8323
:102E900085E58B8382E08C8370E080E090E054E0F5
:102EA000BDE720E2F22E41E0450F252F30E08617E6
:102EB00097071CF5F801E80FF91FA381E3E8EA0F73
:102EC000E33088F4E1E0F0E0EC0FFD1FE20FF31FC8
:102ED000B0835E5FE1E0F0E0EC0FFD1FE40FF11D59
:102EE000AF25A08308C0E1E0F0E0EC0FFD1FE20F8A
:102EF000F31FA083542F0196D6CFE1E0F0E0EC0F52
:102F0000FD1FE20FF31F8FE78083403270F4E091E2
:102F1000C702F091C80250E00280F381E02DBE01AB
:102F20006F5F7F4F87EC92E00995F8011282C150E4
:102F3000DF4F0FB6F894DEBF0FBECDBFDF91CF914C
:102F40001F910F91FF9008951F93CF93DF93EC0192
:102F5000162F8A81811113C00E944F1F37E096956A
:102F60008795779567953A95D1F76F7B8A8191E040
:102F7000980F9A83FE01E80FF11D606863839A81C0
:102F800081E0890F8A83FE01E90FF11D13838431EB
:102F900031F4CE01DF91CF911F910C942917DF916D
:102FA000CF911F9108957F928F929F92AF92BF927F
:102FB000CF92DF92EF92FF920F931F93CF93DF9305
:102FC0005C016B018C01C0E0D0E0F801838D948D31
:102FD000892BA1F421960E5F1F4FC230D105A9F7AE
:102FE000DF91CF911F910F91FF90EF90DF90CF90E5
:102FF000BF90AF909F908F907F900895F601708062
:10300000E12CF12C45018C0E9D1EFCE68F0E911CCF
:10301000F401808190E0E816F906E4F6872D90E14E
:10302000E99E800D1124F6018083A60164E070E022
:10303000F801838D948D0E94330EFFEFEF1AFF0A83
:10304000E7CF2F923F924F925F926F927F928F9233
:103050009F92AF92BF92CF92DF92EF92FF920F9327
:103060001F93CF93DF93CDB7DEB728970FB6F894B1
:10307000DEBF0FBECDBF8C016B014D8321E04C0143
:1030800036E6830E911C81967C01D801AC59BF4F66
:103090002D01F801ED59FF4FFF83EE835801F7E64C
:1030A000AF0EB11C3D81231708F012C1D4018C91E1
:1030B0008111A6C0F601E20FF11D618081E0820F4F
:1030C00092E0920FB0EF6B1250C0F601E80FF11DC5
:1030D0002080F601E90FF11D708083E0820FF60178
:1030E000E80FF11D2C5F3080F5011082C7012887A1
:1030F0000E94070C622DC7010E94F90B672DC701C2
:103100000E94F90B632DC7010E94F90B2885F7EF88
:103110007F120FC0D801ED91FC910484F585E02D5C
:10312000B701C8010995B6E0B9836A827B821C8227
:1031300066C0E7EF3E1210C0D801ED91FC91048407
:10314000F585E02DB701C80128870995B6E0B98358
:103150006A827B823C8253C0E4E0E9832A827B82DC
:103160003C82E1E0D401EC934BC067FE12C0F60153
:10317000E80FF11D3080F601E90FF11D608083E05A
:10318000820FF601E80FF11D2C5F7080D2013C9296
:103190000CC021E0AE81BF812C93D2013C906080B5
:1031A000292FF601E80FF11D7080C70128870E94C2
:1031B000070C632DC7010E94F90B662DC7010E9401
:1031C000F90B672DC7010E94F90BD801ED91FC9115
:1031D0000484F585E02DB701C8010995832D90E0A1
:1031E00044E0959587954A95E1F789833A826B8209
:1031F0007C82BE016F5F7F4FC8010E94D317288574
:10320000F4018081882309F44DCF66246394620E13
:10321000F601E20FF11D7080F7EF7F1239C0D40183
:103220001C9267EFC7010E94F90BC7010E940A0CAC
:10323000882349F0D801ED91FC910484F585E02DB7
:10324000B701C8010995F5018081F801E80FF11D6A
:10325000E859FF4F97EF908321E0280FD5012C9379
:103260008B5F89831A821B821C82FE01329680E06A
:1032700090E030E0821793074CF40196D801A80F34
:10328000B91FA959BF4F4C914193F4CFF50110825A
:10329000672DC7010E94F90BD5018C91F801E80F49
:1032A000F11DE859FF4F70828F5F8C93833071F46A
:1032B00084E08983F801E859FF4F80818A83319641
:1032C00080818B83319680818C831C92262DEACE5F
:1032D00028960FB6F894DEBF0FBECDBFDF91CF9119
:1032E0001F910F91FF90EF90DF90CF90BF90AF9024
:1032F0009F908F907F906F905F904F903F902F9016
:103300000895FB018581893019F481E0968191113E
:1033100080E00895FB018681833021F481E095816E
:10332000913009F080E008952F923F924F925F9282
:103330006F927F928F929F92AF92BF92CF92DF92C5
:10334000EF92FF920F931F93CF93DF93CDB7DEB72A
:10335000C250D1400FB6F894DEBF0FBECDBF5C01A6
:103360004B01642F79019E012F5F3F4F40E051E0F8
:10337000C4010E94740F2C0197FD80C0612C712C38
:10338000212C312C00E010E020E0041515050CF094
:1033900073C0CC24C394D12CCC0EDD1EC00ED11E24
:1033A000F6013081E2E0F0E0EC0FFD1FE00FF11FCD
:1033B0008081843059F028F4823009F05AC0160117
:1033C00058C0853041F18532B9F153C03601B6019C
:1033D000C501CF5FDE4F2883C150D140CE5FDE4FA5
:1033E0003883C250D1400E948A19CF5FDE4F2881B6
:1033F000C150D140CE5FDE4F3881C250D1408823CA
:10340000C1F1F1018581F7018183F6018281F70124
:10341000828321E02EC0F3019281F701828198130B
:1034200028C0F601828187FF04C08F77F70183836C
:1034300020C0F70184831DC0E3E0F0E0EC0FFD1F26
:10344000E00FF11F80818130A1F4F401928193306B
:1034500080F4E4E0F0E0EC0FFD1FE00FF11F80814D
:10346000811101C081E0F501E90FF11DE559FF4F20
:103470008083030F111D89CF822F01C080E0CE5FB2
:10348000DE4F0FB6F894DEBF0FBECDBFDF91CF91F8
:103490001F910F91FF90EF90DF90CF90BF90AF9072
:1034A0009F908F907F906F905F904F903F902F9064
:1034B00008952F923F924F925F926F927F928F92D8
:1034C0009F92AF92BF92CF92DF92EF92FF920F93B3
:1034D0001F93CF93DF93CDB7DEB7DA950FB6F8948D
:1034E000DEBF0FBECDBF4C01CB01642F69019E0131
:1034F0002F5F3F4F40E051E00E94740F2C0197FD79
:1035000046C0A12CB12C612C712C00E010E0312CB4
:1035100004151505D4F5EE24E394F12CEC0EFD1EF4
:10352000E00EF11EF7012080E2E0F0E0EC0FFD1F5D
:10353000E00FF11F9081943031F09530B1F092306E
:1035400009F537011FC05701B701C4010E94811955
:103550008823C1F0F3018581F6018183F70182811F
:10356000F6018283332433940DC0F5019281F60174
:103570008281981307C0F701828187FF03C08F778C
:10358000F6018383020D111DC3CF832D01C080E09E
:10359000D3950FB6F894DEBF0FBECDBFDF91CF91AC
:1035A0001F910F91FF90EF90DF90CF90BF90AF9061
:1035B0009F908F907F906F905F904F903F902F9053
:1035C0000895BF92CF92DF92EF92FF920F931F93D5
:1035D000CF93DF93B82EC92EEB018A01FA016181E6
:1035E00070E0CE010E947C11F8016381CE01099642
:1035F0000E94450C72E0D72EDA86E0E4EE2EF12C24
:10360000FC86EB86F8016481CE010F960E94450C82
:10361000D88AFA8AE98A2A81EB2DFC2DE20FF11D66
:10362000E20FF11DD28FC18FDF91CF911F910F91CA
:10363000FF90EF90DF90CF90BF900895CF92DF92F0
:10364000EF92FF920F931F93CF93DF93CDB7DEB727
:1036500028970FB6F894DEBF0FBECDBF6C018B016B
:103660007A01FA01618170E0C8010E947C11F701C2
:103670006381C80109960E94450C83E0F8018287A6
:1036800080E490E094878387BE016F5F7F4FC8011D
:103690000E94590FE12CF12C9701FFEFEF1AFF0A5E
:1036A0008B8190E0281739073CF420E04E2D68E02C
:1036B000C8010E94CA11F0CFF60110A3078F289607
:1036C0000FB6F894DEBF0FBECDBFDF91CF911F9133
:1036D0000F91FF90EF90DF90CF9008950F931F937D
:1036E000CF93DF93CDB7DEB729970FB6F894DEBF3F
:1036F0000FBECDBF8C01672B79F59E012F5F3F4F29
:1037000040E050E0BC018091BA029091BB020E945F
:103710009419E091BA02F091BB02882341F0AE0106
:103720004F5F5F4FB801CF010E94E11A15C09E01A3
:103730002A5F3F4F40E050E0B801CF010E94591A84
:10374000882351F0AE014A5F5F4FB8018091BA0201
:103750009091BB020E941E1B29960FB6F894DEBF03
:103760000FBECDBFDF91CF911F910F9108957F9232
:103770008F929F92AF92BF92CF92DF92EF92FF9281
:103780000F931F93CF93DF93EC01F0E27F2E03E0C2
:1037900010E0A5E0EA2EF12CB4E0CB2ED12CAA2427
:1037A000A394B12C92E0892E912C87EC92E00E9498
:1037B000A220892B09F489C087EC92E00E94BB20EB
:1037C0008093B9028D3721F481E08093B8027DC0E7
:1037D0008E3731F41092B7021092B6021092B802EE
:1037E0009091B802992329F087258093B90210920D
:1037F000B8028091B6029091B7028230910529F10A
:1038000074F40097A1F0019781F68091B90282507B
:103810008093B5029092B7028092B602C6CF8430F0
:10382000910571F1ECF0059709F43FC0BECF80918E
:10383000B9028E3709F0B9CF1092B5021092B402D6
:10384000B092B702A092B602B0CF8091B9021092A6
:103850001501809316011093B7020093B602A5CF0D
:103860002091B9028091150190911601822B9093BD
:10387000160180931501D092B702C092B60295CF7F
:10388000E091B40281E08E0F8093B402F0E0EC5C32
:10389000FD4F9091B90290839091B502891385CF25
:1038A000F092B702E092B60280CF8091B9028F37D2
:1038B00061F44091B50264E372E0CE010E942118E8
:1038C0001092B7021092B60270CFDF91CF911F9184
:1038D0000F91FF90EF90DF90CF90BF90AF909F90AF
:1038E0008F907F9008952F923F924F925F926F92A8
:1038F0007F928F929F92AF92BF92CF92DF92EF9280
:10390000FF920F931F93CF93DF93CDB7DEB7C456CB
:10391000D1090FB6F894DEBF0FBECDBF8C010E9457
:103920004F1FA2966CAF7DAF8EAF9FAFA2970E9444
:103930002510D8015F968D919C9190970097B1F4D6
:1039400080E1E7E4F1E0DE01AF5BBF4F01900D9253
:103950008A95E1F7280122242394312CFE01319627
:103960007F015801F2E4AF0EB11CDBC0AE014F5F26
:103970005F4F20E4DA011D922A95E9F721E060E427
:1039800070E00E944E0DAA24A394B12C52E0952E13
:103990008981892109F473C09E012F5A3F4F44E069
:1039A00050E06A2DF801878D90A10E94E61165967E
:1039B0008CAD9DADAEADBFAD65978115F1E09F07B4
:1039C000AF07B10559F5D801ED91FC910680F7815B
:1039D000E02DB501C801099520E04A2D61E1F8010B
:1039E000878D90A10E94AE1120E04A2D60E1D801A0
:1039F0005F968D919C9190970E94AE11C5010E9497
:103A0000C60CE091BA02F091BB02C5010197880F84
:103A1000991FE80FF91F148E138E31C09D7F8130DE
:103A20009140A140B10599F4D801ED91FC91048039
:103A3000F581E02DB501C80109956A2DF801878D42
:103A400090A10E94FF11C5010E94E00F18C020E064
:103A50004A2D61E1D8015F968D919C9190970E94CB
:103A6000AE1120E04A2D60E1F801878D90A10E94FF
:103A7000AE1164E670E080E090E00E947E1F990C39
:103A8000FFEFAF1ABF0A28E0A216B10409F080CFF9
:103A900057CF6C961FAE6C97D701E0E41D92EA9564
:103AA000E9F721E0A70160E470E0D2015B968D9117
:103AB0009C915C970E944E0DA4969FAF8EAFA497E9
:103AC0009E012D5F3F4F67963FAF2EAF67972F5FE9
:103AD0003F4F69963FAF2EAF6997225031096B96E1
:103AE0003FAF2EAF6B9767016D961FAE6D97C60106
:103AF0008E199F09A4962EAD3FADA4978217930708
:103B0000CCF06C963FAD6C973111C6CFBFEF2B1A3E
:103B10003B0AE2E04E0E511CF3E02F16310409F48B
:103B2000F5C0D2015B968D919C915C97892B09F031
:103B3000B0CFECCF0E944F1F362F3068932ED601A6
:103B40008C918F70682E712CE1E4F0E0EC0FFD1F7A
:103B5000E60DF71D2081A5962FAFA5978430A9F417
:103B6000C5010E94070C88248394912CF601E80D6E
:103B7000F91D6081C5010E94F90B3FEF831A930A7A
:103B800084E08816910491F79BC09BEF980F9330C7
:103B900018F5632FC8010E94A41794E0691A7108F0
:103BA0004701C4018E199F09861597053CF4D4017D
:103BB0006D914D01C5010E94F90BF3CFD801ED9134
:103BC000FC910284F385E02DA501B101C80109959E
:103BD0006C961FAE6C9778C08850873008F074C020
:103BE000C5010E94070C6B96EEADFFAD6B9760812F
:103BF000C5010E94F90B6796AEADBFAD67976C919A
:103C0000C5010E94F90B6996EEADFFAD6997608121
:103C1000C5010E94F90BD801ED91FC910284F38556
:103C2000E02DA501B101C80109956B96EEADFFAD80
:103C30006B97F0816E96FFAF6E97D80112968C91BC
:103C40006D962FAD6D972F1316C0833118F0C801F4
:103C50000E9429176796AEADBFAD67976C91C801FA
:103C60000E94A4176996EEADFFAD69976081C80107
:103C70000E94A41729C0813118F0C8010E94291799
:103C8000692DC8010E94A417812C912CA5962FADF7
:103C9000A597622E712C861497045CF4F601E80D4A
:103CA000F91D6181C8010E94A4173FEF831A930A8E
:103CB000F2CF6E962FAD6E976D962FAF6D9704C0B5
:103CC00031E06C963FAF6C9767962EAD3FAD67972E
:103CD0002C5F3F4F67963FAF2EAF679734E0C30E20
:103CE000D11C69962EAD3FAD69972C5F3F4F699609
:103CF0003FAF2EAF69976B962EAD3FAD6B972C5FA4
:103D00003F4F6B963FAF2EAF6B97F1CEF80187898F
:103D1000908DA18DB28DA296CCACDDACEEACFFAC9B
:103D2000A297C81AD90AEA0AFB0AF8E0CF16D1040A
:103D3000E104F10418F0C8010E942917C8010E948B
:103D4000B71BCC59DF4F0FB6F894DEBF0FBECDBF07
:103D5000DF91CF911F910F91FF90EF90DF90CF9067
:103D6000BF90AF909F908F907F906F905F904F909B
:103D70003F902F900895CF93CFB7F8948091BD02D4
:103D8000811127C0EAEDF0E18491E6ECF0E1949135
:103D9000E82FF0E0EE0FFF1FE850FF4EA591B49121
:103DA0008C91892321F461E08AE00E94432061E044
:103DB0008AE00E940A208CB580618CBD8CB580643D
:103DC0008CBD61E08DE00E940A2061E08BE00E94E2
:103DD0000A208091BD028F5F8093BD02CFBFCF913B
:103DE00008959FB7F8948091BD02882319F08150FF
:103DF0008093BD028091BD02811105C08CB58F7B7F
:103E00008CBD1092BC029FBF08951F920F920FB6F7
:103E10000F9211242F933F938F939F93AF93BF9350
:103E20008091BF029091C002A091C102B091C202E4
:103E30003091BE0223E0230F2D3720F40196A11DFF
:103E4000B11D05C026E8230F0296A11DB11D2093C8
:103E5000BE028093BF029093C002A093C102B093B0
:103E6000C2028091C3029091C402A091C502B09198
:103E7000C6020196A11DB11D8093C3029093C40296
:103E8000A093C502B093C602BF91AF919F918F914D
:103E90003F912F910F900FBE0F901F9018952FB745
:103EA000F8946091BF027091C0028091C10290911C
:103EB000C2022FBF08953FB7F8948091C30290913A
:103EC000C402A091C502B091C60226B5A89B05C048
:103ED0002F3F19F00196A11DB11D3FBF6627782F16
:103EE000892F9A2F620F711D811D911D42E0660F6F
:103EF000771F881F991F4A95D1F70895CF92DF92B7
:103F0000EF92FF92CF93DF936B017C010E945B1FC6
:103F1000EB01C114D104E104F10489F00E94C8222C
:103F20000E945B1F6C1B7D0B683E734090F381E029
:103F3000C81AD108E108F108C851DC4FEACFDF9177
:103F4000CF91FF90EF90DF90CF900895789484B553
:103F5000826084BD84B5816084BD85B5826085BD85
:103F600085B5816085BDEEE6F0E08081816080836B
:103F7000E1E8F0E01082808182608083808181604E
:103F80008083E0E8F0E0808181608083E1EBF0E015
:103F9000808184608083E0EBF0E0808181608083B9
:103FA000EAE7F0E0808184608083808182608083A2
:103FB0008081816080838081806880831092C100CD
:103FC0000895833081F028F4813099F08230A1F097
:103FD00008958730A9F08830B9F08430D1F4809109
:103FE00080008F7D03C0809180008F778093800058
:103FF000089584B58F7702C084B58F7D84BD089500
:104000008091B0008F7703C08091B0008F7D809346
:10401000B0000895CF93DF9390E0FC01E454FF4E8D
:104020002491FC01E053FF4E8491882349F190E0F4
:10403000880F991FFC01E850FF4EA591B491825161
:104040009F4EFC01C591D4919FB7611108C0F894AF
:104050008C91209582238C93888182230AC06230C0
:1040600051F4F8948C91322F309583238C9388816E
:10407000822B888304C0F8948C91822B8C939FBFF1
:10408000DF91CF9108950F931F93CF93DF931F92EA
:10409000CDB7DEB7282F30E0F901E855FF4E849107
:1040A000F901E454FF4E1491F901E053FF4E0491DD
:1040B0000023C9F0882321F069830E94E11F6981F0
:1040C000E02FF0E0EE0FFF1FE251FF4EA591B491FB
:1040D0009FB7F8948C91611103C01095812301C0A2
:1040E000812B8C939FBF0F90DF91CF911F910F91E8
:1040F0000895CF93DF93282F30E0F901E855FF4E64
:104100008491F901E454FF4ED491F901E053FF4E3C
:10411000C491CC2391F081110E94E11FEC2FF0E0BB
:10412000EE0FFF1FEC51FF4EA591B4912C912D2362
:1041300081E090E021F480E002C080E090E0DF9137
:10414000CF910895FC01818D228D90E0805C9F4F7E
:10415000821B91098F7399270895FC01918D828D9F
:10416000981731F0828DE80FF11D858D90E008954C
:104170008FEF9FEF0895FC01918D828D981761F06C
:10418000828DDF01A80FB11D5D968C91928D9F5F8E
:104190009F73928F90E008958FEF9FEF08958FE3C4
:1041A00092E2892B49F080E090E0892B29F00E946F
:1041B0003F2281110C9400000895FC01848DDF01E1
:1041C000A80FB11DA35ABF4F2C91848D90E001968A
:1041D0008F739927848FA689B7892C93A089B18979
:1041E0008C9180648C93938D848D981306C0028883
:1041F000F389E02D80818F7D80830895CF93DF93B5
:10420000EC01888D8823C9F0EA89FB89808185FDCE
:1042100005C0A889B9898C9186FD0FC00FB607FC2F
:10422000F5CF808185FFF2CFA889B9898C9185FF70
:10423000EDCFCE010E94DD20E7CFDF91CF91089531
:10424000CF92DF92FF920F931F93CF93DF931F9232
:10425000CDB7DEB76C0181E0D60158968C935897A4
:104260005B969C915B975C968C915C97981307C0CA
:104270005096ED91FC915197808185FD2EC0F601FD
:10428000038D10E00F5F1F4F0F731127F02EF60103
:10429000848DF81211C00FB607FCF9CFD6015096E5
:1042A000ED91FC915197808185FFF1CFC601698323
:1042B0000E94DD206981EBCF838DE80FF11DE35A69
:1042C000FF4F6083D6015B960C935B975296ED91FE
:1042D000FC915397808180620CC0D6015696ED9177
:1042E000FC91579760835096ED91FC915197808196
:1042F0008064808381E090E00F90DF91CF911F91E7
:104300000F91FF90DF90CF900895BF92CF92DF92F0
:10431000EF92FF92CF93DF93EC016A017B01B22E03
:10432000E889F98982E08083411581EE58076105AB
:104330007105A1F060E079E08DE390E0A7019601BE
:104340000E94E922215031094109510956954795AA
:1043500037952795211580E1380798F0E889F98984
:10436000108260E874E88EE190E0A70196010E9457
:10437000E922215031094109510956954795379550
:104380002795EC85FD853083EE85FF852083188E8B
:10439000EC89FD89B082EA89FB8980818061808314
:1043A000EA89FB89808188608083EA89FB89808132
:1043B00080688083EA89FB8980818F7D8083DF919B
:1043C000CF91FF90EF90DF90CF90BF9008951F9214
:1043D0000F920FB60F9211242F938F939F93EF9309
:1043E000FF93E091D702F091D8028081E091DD0245
:1043F000F091DE0282FD12C090818091E0028F5F19
:104400008F732091E102821751F0E091E002F0E019
:10441000E953FD4F958F8093E00201C08081FF91A9
:10442000EF919F918F912F910F900FBE0F901F9042
:1044300018951F920F920FB60F9211242F933F934E
:104440004F935F936F937F938F939F93AF93BF939C
:10445000EF93FF9387EC92E00E94DD20FF91EF91B4
:10446000BF91AF919F918F917F916F915F914F918C
:104470003F912F910F900FBE0F901F90189587ECD2
:1044800092E00E94A22021E0892B09F420E0822FF3
:1044900008951092CA021092C90288EE93E0A0E03B
:1044A000B0E08093CB029093CC02A093CD02B09366
:1044B000CE0283E991E09093C8028093C70285EC15
:1044C00090E09093D4028093D30284EC90E0909398
:1044D000D6028093D50280EC90E09093D80280932E
:1044E000D70281EC90E09093DA028093D90282ECBB
:1044F00090E09093DC028093DB0286EC90E0909356
:10450000DE028093DD021092E0021092E10210922E
:10451000E2021092E302089508950E94A61F0E94ED
:104520008C220E94B314CFECD0E20E94C5142097D5
:10453000E1F30E94CF20F9CF0C9444230C94DC23A8
:10454000CF92DF92EF92FF920F931F93CF93DF935F
:104550006C017A01EB01E60EF71E00E010E0CE15CB
:10456000DF0561F06991D601ED91FC910190F08138
:10457000E02DC6010995080F191FF1CFC801DF9181
:10458000CF911F910F91FF90EF90DF90CF90089502
:104590000895991B79E004C0991F961708F0961B9F
:1045A000881F7A95C9F78095089597FB072E16F412
:1045B000009407D077FD09D00E942A2307FC05D07C
:1045C0003EF4909581959F4F0895709561957F4F2A
:1045D0000895A1E21A2EAA1BBB1BFD010DC0AA1F44
:1045E000BB1FEE1FFF1FA217B307E407F50720F05C
:1045F000A21BB30BE40BF50B661F771F881F991FD7
:104600001A9469F760957095809590959B01AC011F
:10461000BD01CF010895052E97FB1EF400940E9462
:10462000222357FD07D00E94E92207FC03D04EF455
:104630000C94222350954095309521953F4F4F4F34
:104640005F4F089590958095709561957F4F8F4F3E
:104650009F4F0895AA1BBB1B51E107C0AA1FBB1F98
:10466000A617B70710F0A61BB70B881F991F5A95FE
:10467000A9F780959095BC01CD010895EE0FFF1F1D
:104680000590F491E02D0994CF93DF93823091054A
:1046900010F482E090E0E0916603F091670320E07F
:1046A00030E0A0E0B0E0309739F140815181481707
:1046B0005907B8F04817590771F482819381109710
:1046C00029F013969C938E9312972CC090936703B6
:1046D0008093660327C02115310531F04217530737
:1046E00018F0A901DB0101C0EF019A01BD01DF0152
:1046F0000280F381E02DD7CF21153105F9F0281B79
:10470000390B2430310580F48A819B816115710554
:1047100021F0FB019383828304C09093670380930D
:104720006603FE01329644C0FE01E20FF31F81933F
:10473000919322503109398328833AC02091640330
:1047400030916503232B41F4209102013091030144
:10475000309365032093640320910001309101019F
:104760002115310541F42DB73EB740910401509118
:104770000501241B350BE0916403F0916503E217FA
:10478000F307A0F42E1B3F0B2817390778F0AC0174
:104790004E5F5F4F2417350748F04E0F5F1F509351
:1047A0006503409364038193919302C0E0E0F0E0DD
:1047B000CF01DF91CF910895CF93DF93009709F454
:1047C00087C0FC01329713821282C0916603D09198
:1047D0006703209781F420813181280F391F809150
:1047E0006403909165038217930779F5F09365034D
:1047F000E09364036DC0DE0120E030E0AE17BF0738
:1048000050F412964D915C9113979D0141155105FD
:1048100009F1DA01F3CFB383A28340815181840F80
:10482000951F8A179B0771F48D919C911197840FA6
:10483000951F02969183808312968D919C91139778
:10484000938382832115310529F4F0936703E09364
:1048500066033EC0D9011396FC93EE9312974D91D7
:104860005D91A40FB51FEA17FB0779F48081918150
:10487000840F951F0296D90111969C938E93828185
:10488000938113969C938E931297E0E0F0E08A81D7
:104890009B81009719F0FE01EC01F9CFCE01029641
:1048A00028813981820F931F209164033091650321
:1048B0002817390769F4309729F41092670310928A
:1048C000660302C013821282D0936503C09364030F
:1048D000DF91CF910895DC0101C06D9341505040AC
:1048E000E0F7089511E1C6E0D1E104C0FE010E94A5
:0E48F00040232296C830D107C9F7F894FFCFB5
:1048FE0000006803800011A80E680A680868066840
:10490E000468026800FFFF101A251E1F22260D27BD
:10491E000E2D14290F240C2A0208200A161C151D10
:10492E002B1918052C171B0313232E120B07062801
:10493E00000409212F1101000002030301020303E9
:10494E00030303010103010000000004131A1361A5
:10495E001262126012631273123D1400000000D036
:10496E0014E81400000000DC142B1500000000CD2C
:10497E0016D316C916CA166012CB16CC16731C00A7
:10498E000000002021A022A220BB20AD20FE20008E
:00000001FF
